{
  "transactions": [
    {
      "hash": "0x7c18a5d152e04c3452bed85e0052dddf7d200e9ff14d6aec9742648671f1a7f3",
      "transactionType": "CALL",
      "contractName": null,
      "contractAddress": "0x7da1fa0f703edaf7ae2ded7c70f40d04a8ff8bc3",
      "function": "mintNFT(string)",
      "arguments": [
        "ipfs://bafybeig37ioir76s7mg5oobetncojcm3c3hxasyd4rvid4jqhy4gkaheg4/?filename=0-PUG.json"
      ],
      "transaction": {
        "from": "0x5e64ec4d4bce73195bc6f180c2b20c4160f83d53",
        "to": "0x7da1fa0f703edaf7ae2ded7c70f40d04a8ff8bc3",
        "gas": "0x3d61a",
        "value": "0x0",
        "input": "0xfb37e88300000000000000000000000000000000000000000000000000000000000000200000000000000000000000000000000000000000000000000000000000000057697066733a2f2f62616679626569673337696f6972373673376d67356f6f6265746e636f6a636d3363336878617379643472766964346a71687934676b61686567342f3f66696c656e616d653d302d5055472e6a736f6e000000000000000000",
        "nonce": "0x37",
        "chainId": "0xaa36a7"
      },
      "additionalContracts": [],
      "isFixedGasLimit": false
    }
  ],
  "receipts": [
    {
      "status": "0x1",
      "cumulativeGasUsed": "0x14437f8",
      "logs": [
        {
          "address": "0x7da1fa0f703edaf7ae2ded7c70f40d04a8ff8bc3",
          "topics": [
            "0xddf252ad1be2c89b69c2b068fc378daa952ba7f163c4a11628f55a4df523b3ef",
            "0x0000000000000000000000000000000000000000000000000000000000000000",
            "0x0000000000000000000000005e64ec4d4bce73195bc6f180c2b20c4160f83d53",
            "0x0000000000000000000000000000000000000000000000000000000000000000"
          ],
          "data": "0x",
          "blockHash": "0x694a3cfb344f6635a988a476ff6ce9ea9b0f04b5362df1f2df3e686f566fb8df",
          "blockNumber": "0x72ef12",
          "transactionHash": "0x7c18a5d152e04c3452bed85e0052dddf7d200e9ff14d6aec9742648671f1a7f3",
          "transactionIndex": "0x68",
          "logIndex": "0xa1",
          "removed": false
        }
      ],
      "logsBloom": "0x00000000000000000000000000000000000000000000000000000000002000000000000000000000000000000000002000000000000000000000000000000000000000800000000000000008000000000000002000000000000000000000000000000000020000800000000000000800000000000000000000000010000000000000000040000000000000000000000000000000000000000000000000000000000000000000000000000000000000000000000000000000000000000000000000000002000000000000000000000000000000000000000000000000000020000000000000000000000000000000000000000000000000000000000000000000",
      "type": "0x2",
      "transactionHash": "0x7c18a5d152e04c3452bed85e0052dddf7d200e9ff14d6aec9742648671f1a7f3",
      "transactionIndex": "0x68",
      "blockHash": "0x694a3cfb344f6635a988a476ff6ce9ea9b0f04b5362df1f2df3e686f566fb8df",
      "blockNumber": "0x72ef12",
      "gasUsed": "0x2c707",
      "effectiveGasPrice": "0x24446eb65",
      "from": "0x5e64ec4d4bce73195bc6f180c2b20c4160f83d53",
      "to": "0x7da1fa0f703edaf7ae2ded7c70f40d04a8ff8bc3",
      "contractAddress": null
    }
  ],
  "libraries": [],
  "pending": [],
  "returns": {},
  "timestamp": 1737371801,
  "chain": 11155111,
  "commit": "d624ad5"
}