{
  "transactions": [
    {
      "hash": "0x09e0bc4ec58cf143fcaf141f8141d4e69733b48df040174adc368c79c48d0160",
      "transactionType": "CALL",
      "contractName": null,
      "contractAddress": "0xb7010cf6dfc8be025fbdd2bef99dddd1013e933d",
      "function": "mintNFT(string)",
      "arguments": [
        "ipfs://bafybeig37ioir76s7mg5oobetncojcm3c3hxasyd4rvid4jqhy4gkaheg4/?filename=0-PUG.json"
      ],
      "transaction": {
        "from": "0x5e64ec4d4bce73195bc6f180c2b20c4160f83d53",
        "to": "0xb7010cf6dfc8be025fbdd2bef99dddd1013e933d",
        "gas": "0x3d61a",
        "value": "0x0",
        "input": "0xfb37e88300000000000000000000000000000000000000000000000000000000000000200000000000000000000000000000000000000000000000000000000000000057697066733a2f2f62616679626569673337696f6972373673376d67356f6f6265746e636f6a636d3363336878617379643472766964346a71687934676b61686567342f3f66696c656e616d653d302d5055472e6a736f6e000000000000000000",
        "nonce": "0x4b",
        "chainId": "0xaa36a7"
      },
      "additionalContracts": [],
      "isFixedGasLimit": false
    }
  ],
  "receipts": [
    {
      "status": "0x1",
      "cumulativeGasUsed": "0x1f4ba35",
      "logs": [
        {
          "address": "0xb7010cf6dfc8be025fbdd2bef99dddd1013e933d",
          "topics": [
            "0xddf252ad1be2c89b69c2b068fc378daa952ba7f163c4a11628f55a4df523b3ef",
            "0x0000000000000000000000000000000000000000000000000000000000000000",
            "0x0000000000000000000000005e64ec4d4bce73195bc6f180c2b20c4160f83d53",
            "0x0000000000000000000000000000000000000000000000000000000000000000"
          ],
          "data": "0x",
          "blockHash": "0xc9e2d6b37e03a5af8f4a66fa209ecbb5a5b99222f2e4cc1844f60ed92210288e",
          "blockNumber": "0x72f735",
          "transactionHash": "0x09e0bc4ec58cf143fcaf141f8141d4e69733b48df040174adc368c79c48d0160",
          "transactionIndex": "0x30",
          "logIndex": "0x10d2",
          "removed": false
        }
      ],
      "logsBloom": "0x00000000000000000000080000000000000000000000000000000000000000000000000000000000000040000000002000000000000000000000000000000000000000000000000000000008000000000000002000000000000000000000000000000000020000000000000000000800000000000000000000000010000000000000000040000000000000000000000000000000000000000000000000000000000000000000000000000000000000000000000000000000000000000000000000000002000000000000800000000000000000000000000000000000000020000000000000000000000000000000000000000000000000000000000000000000",
      "type": "0x2",
      "transactionHash": "0x09e0bc4ec58cf143fcaf141f8141d4e69733b48df040174adc368c79c48d0160",
      "transactionIndex": "0x30",
      "blockHash": "0xc9e2d6b37e03a5af8f4a66fa209ecbb5a5b99222f2e4cc1844f60ed92210288e",
      "blockNumber": "0x72f735",
      "gasUsed": "0x2c707",
      "effectiveGasPrice": "0x42c23898",
      "from": "0x5e64ec4d4bce73195bc6f180c2b20c4160f83d53",
      "to": "0xb7010cf6dfc8be025fbdd2bef99dddd1013e933d",
      "contractAddress": null
    }
  ],
  "libraries": [],
  "pending": [],
  "returns": {},
  "timestamp": 1737396892,
  "chain": 11155111,
  "commit": "d624ad5"
}